S01700005A334E43505370694D473231763636302E7333373A
S315000040000038002055B20200B1A30000B5A300009D
S31500004010A70A0A010041000004180FAC006645001B
S31500004020000000000000000000000000000000008A
S3150000403000000000682003000000000000000000EF
S315000040400000000000000000FFFFFFFFFFFFFFFF72
S31500004050FFFFFFFF00600F000000000000000000EF
S31500004060FFFFFFFFFFFFFFFF8000000000000000D2
S31500004070000000000000000000000000000000003A
S315000040800000000000000000A05A0020A05A0020F6
S3150000409000380020E45203007C1E0300A02E0020FE
S311000040A0762E002000E00F00000000005B
S315000041000038002055B20200B1A30000B5A300009C
S31500004110BDA30000B9A30000C1A3000051B2020074
S3150000412051B2020051B2020051B2020051B2020075
S31500004130C5A3000051B2020051B2020051B2020002
S3150000414020A5000020A5000020A5000020A5000055
S3150000415020A50000C1600000016C000020A5000041
S3150000416020A5000020A50000A957000020A50000FA
S3150000417020A5000020A5000020A5000020A5000025
S3150000418020A5000020A5000020A5000051B20200D5
S3150000419020A500009950000020A5000020A50000E1
S315000041A020A50000995100007151000020A50000D3
S315000041B020A5000020A5000020A50000C50F0300D3
S315000041C0510F03004D0F0300C9090300C10F03007F
S315000041D0550F0300750F0300590F03001DFA020067
S315000041E00910030020A5000020A50000A5A80000D6
S315000041F020A5000020A5000020A5000051B2020065
S3150000420020A5000020A5000020A5000020A5000094
S3150000421020A5000020A5000020A5000020A5000084
S3150000422020A5000020A5000020A5000020A5000074
S3090000423020A50000BF
S31500004234F8B500BFF8BC08BC9E467047F8B500BF89
S31500004244F8BC08BC9E46704710B5054C237833B9B4
S31500004254044B13B1044800E000BF0123237010BDD2
S31500004264303D002000000000AC4D030008B5034BB0
S315000042741BB10349034800E000BF08BD000000006D
S31500004284343D0020AC4D0300154B002B08BF134BE7
S315000042949D46A3F5803A00218B460F461348144ADF
S315000042A4121A2DF0D7FD0F4B002B00D098470E4B5A
S315000042B4002B00D098470020002104000D000D4873
S315000042C4002802D00C4800E000BF2DF085FD200038
S315000042D4290013F0B1F92DF06BFD00BF00000800B2
S315000042E4003800200000000000000000303D0020DF
S315000042F4A05A00200000000000000000002307B5BB
S31500004304CDE90033012369464FF0FF308DF80230C2
S3150000431427F0B4FE003018BF012003B05DF804FB9B
S3150000432400207047002814BF022000207047012097
S31500004334704701207047012814BF022000207047EF
S31500004344012070472DE9F84F80460D4614469946DC
S31500004354164E06F1010A0DB9BDE8F88F102D4FF07F
S315000043640D02494650462F4628BF102706F0D8F8B6
S315000043740123337000230D48F473B37322F096FEC1
S31500004384424601340A495FFA87FBE4B212F8013B5C
S3150000439411F8010F434002F8013CA2EB0803DBB21B
S315000043A45B45F3D3ED1BADB29046D4E7503D0020F8
S315000043B44F3D00202DE9F04F4FF00209364D85B0F0
S315000043C403930F9B174601900D220E460146681C67
S315000043D4BDF83880029306F0A3F849234C46AA4652
S315000043E42B7028464FEA1823AB7385F80F8022F00A
S315000043F45DFE2B7883EA17232B706B787B406B70FA
S315000044044FF0000B21E0C4F1100CA7EB0B031FFACD
S315000044148CFC9BB2634528BF63463046A11B00EB68
S31500004424010C5FFA8CF2A0EB060C1FFA8CFC9C457F
S315000044341BD31C44E4B29B44102C1E441FFA8BFB72
S3150000444403D1284622F032FE0024BB45DBD314B147
S31500004454504622F02BFEB9F1010F4FF00004039EE3
S3150000446447460BD04FF00109CAE710F801CB1AF8FA
S3150000447402E08CEA0E0C0AF802C0D0E70298042285
S31500004484054906F04DF822460421019B029805B021
S31500004494BDE8F04FFFF756BF503D0020F7B5099F22
S315000044A4BDF820400646CDE900471D46FFF782FFCA
S315000044B42CB13346012221462846FFF743FF00204C
S315000044C403B0F0BD2DE9F7431E46054688469146DE
S315000044D4BDF828700D4C0346394630460122FFF7D5
S315000044E431FF33464A4641462846CDE90074FFF774
S315000044F461FF042221460B9806F075F8002814BFC4
S315000045047E20002003B0BDE8F08300BF4C3D0020B0
S315000045142DE9F3410C4615461E468046084F991868
S3150000452421443846042205F0FBFFCDE900676319F0
S315000045342A4621464046FFF7C5FF02B0BDE8F08192
S31500004544603D00200020704701207047012070471D
S3150000455400207047012070470020704700207047F4
S31500004564012070470020704701207047704770474C
S31500004574002814BF02200020704700207047000066
S31500004584032310B50F4C1022C4E904330E4B0F4914
S31500004594E3610023A16121660D49E01DC4E91912F6
S315000045A40C49A3626362E3622367E366636722627C
S315000045B42DF058FC084920462DF054FC2023A37105
S315000045C410BD00BF00540020743D0020C81F030026
S315000045D4643D0020D11F0300D51F03002DE9F84FC9
S315000045E41F4B16461A7881468A4698460AB9FFF73B
S315000045F4C7FF182707FB09873D6FD7F86CB05D45E1
S315000046042BD9BC6E796E641BB44228BF3446294448
S31500004614504622462DF013FCBB6E2544AB4208BF20
S315000046240025A244361BABEB050B5E4528BF5E4650
S3150000463456B1182303FB0983596E32462944504662
S315000046442DF0FDFB3444354424B1182303FB0988BB
S31500004654C8F870502046BDE8F88F0024E3E700BF91
S3150000466400540020F8B504460E46174602F05BFFD8
S315000046743A46054631462046FFF7B0FF044628462B
S3150000468402F057FF2046F8BD2DE9F843124D1E46A9
S315000046942B788146884617460BB9FFF771FF02F05F
S315000046A442FF00244FF0180C69690CFB04535A6E40
S315000046B42AB10134A142F8DC4FF0FF3407E0A142ED
S315000046C4FADDC3E918989F661A67DA665E6702F030
S315000046D430FF2046BDE8F88300540020FFF750BFA2
S315000046E470B54FF060441A4B00261A68194D42F013
S315000046F401021A60DA680C2042F08072DA60164B06
S31500004704C4F8B03F0223C4F8006EC4F8806EC5F83E
S31500004714F03002F031FC114B00F5D52000F2FC40DC
S31500004724B0FBF3F00E4A0F4B01382861C4F8406E13
S315000047341A600D4BC4F8803E4FF48073C5F80433F9
S31500004744D4F8003E43F48073C4F8003E70BD00BF45
S31500004754F0ED00E0000004E055CEACC5F8590D00BC
S31500004764FF030040001000E00D00010010B5012415
S315000047740E4B00201C6002F073FF23460422032123
S31500004784002002F0B5FF204626F0BCF8FFF7A8FF8C
S3150000479426F0BEF8FFF7A2FF234640220449054847
S315000047A4FFF772FF044B1860C00F10BD44D40340DA
S315000047B4843D0020DC1F03000838002008B54FF0B4
S315000047C46043D3F8802ED10711D50F490A6822F425
S315000047D440620A60D3F8802E22F00102C3F8802ECC
S315000047E4D3F8802E1202FBD4642026F0A1FD002308
S315000047F4064AC2F8F030C2F80433A2F54432A2F5F0
S315000048040472136008BD00BF001000E0000004E05D
S31500004814024B1868003018BF01207047F0ED00E025
S31500004824D123054A037013784170090A8170591C13
S31500004834C370117004207047C43D00202DE9F84F61
S315000048442E4F80463B681C5C032C55D926F04DFE42
S315000048544FF6FF7B814600250534DFF8A4A0E4B2B9
S31500004864DAF800304BB1AC4207D926F03EFEA0EB95
S31500004874090080B2B0F5FA7F04D9601B18BF012085
S31500004884BDE8F88F9DB3012D15D102263B6813F8B8
S3150000489408504FF06043D3F8802ED10709D5D3F8DA
S315000048A4002ED20505D519460A6A002AFCD083F8DB
S315000048B420503546D4E7E31E6E1C9D42F6B202D163
S315000048C45FFA8BF5E5E7A31E9D4202D1CBF30725DC
S315000048D4DFE7631E9D420DD0A91EC9B240461AF0F9
S315000048E429F85946054605F0F7FC8346D1E75B25CA
S315000048F40126CEE75D25CCE70120C1E790380020EC
S31500004904F0ED00E010B50B4B90B0402269461868F4
S31500004914FFF7A8FE58B1C1B2684619F095FF0446E0
S31500004924014612200CF052FA204619F02FFE10B060
S3150000493410BD00BF0838002070B5164685180AB9A0
S31500004944304470BD01F00F030A2B34BF30243724E2
S31500004954013A2344090905F8013DD2B2EFE7000004
S31500004964F0B5F9B100281CDA2D23B0F1004F13700D
S3150000497400D04042012115E0801B8642ECB205F1CD
S315000049840105F9D904B927B101274D1C3034545413
S31500004994E9B20133092B09D1303050540131C8B280
S315000049A4F0BD002100231F46DFF808C05CF8236031
S315000049B40025E2E7EC1F03002DE9F04F4FF0000B52
S315000049C495B002AC81468A4617461D465E46A04609
S315000049D43B7863B902ABE41AE4B222461946504660
S315000049E4C847002840F093803444E0B290E0252B79
S315000049F413D0BBF1000F14D12370013412AB9C42C7
S31500004A046DD3A4EB0804E4B2224641465046C84797
S31500004A1400287CD12644F6B260E0BBF1000F00D139
S31500004A2401373B78632B00F092801BD8392B09D8C9
S31500004A34302B80F09E80002BCCD0252B51D04FF00C
S31500004A44000BDBE7582B00F08B80622BF7D14FF07D
S31500004A54000B2B6801936B680093009B9B4543D125
S31500004A640835ECE7702B1ED017D8642B01D06C2BBD
S31500004A74E5D16C2B05F1040B28686CD17B78752B7A
S31500004A8414BF0121002101D0642B00D10137224635
S31500004A94FFF766FF04445D46D1E7752BE9D0782B12
S31500004AA45ED0732BCBD1A4EB0804E4B2224602A950
S31500004AB4504605F1040B2D68C84740BB2644F6B2A0
S31500004AC4C4B22B5D0130002BFAD12246294650464A
S31500004AD4C847E0B95D4683462644F6B244460137E4
S31500004AE476E723700134AAE7019B204613F80B10DE
S31500004AF40222FFF721FF12AB984204460ED3A0EB25
S31500004B040804E4B2224641465046C84718B100207C
S31500004B1415B0BDE8F08F26444446F6B2009B013B2F
S31500004B245B4582BF20232370013412AB9C420BD316
S31500004B34A4EB0804E4B2224641465046C84700287E
S31500004B44E5D126444446F6B20BF1010B85E72B6802
S31500004B5404352370C6E7752B0CBF0021012196E7A7
S31500004B64204602222978FFF7E7FE05F1040B0446E6
S31500004B7491E77A7802F0DF02582A19D1322B07F12D
S31500004B84010B09D10422204629882F1DFFF7D4FEE4
S31500004B943D4604465F4652E7342B09D12F1D2D6846
S31500004BA40422290C2046FFF7C7FE0422A9B2EDE72A
S31500004BB44FF0010B22E700002DE9F04F9B46584BBE
S31500004BC485B01B78064689461546109F9DF844A075
S31500004BD4DDF85080002B00F09280072A00F29180C5
S31500004BE40E9B002B00F08D800F9B002B00F089801C
S31500004BF4129BB3F5006F00F38480012801D1002FC6
S31500004C047FD0484B03EB05131B7B002B7BD0464C14
S31500004C141022002168462DF01DF904EB45141022DC
S31500004C24B9F1000F5CD1494620462DF013F9A3785B
S31500004C3443F01003A370E37843F03003E370BAF152
S31500004C44000F03D1DBB243F00303E37036496A0174
S31500004C54129B885A013B63F30E100E9B01EB020C68
S31500004C648852CCF808300F9B9DF84C10CCF80430D1
S31500004C749CF80330012E61F38303CDF800B08CF861
S31500004C84033042D113230CF1100ECCF80C309CE8FF
S31500004C940F008EE80F006FF00301DCF81C20B9F159
S31500004CA4010F61F39F02CCF81C20CCF8147004D1D8
S31500004CB40F9BCCF80470CCF81830002719492A0148
S31500004CC48B1841F80280159A28465A609F605E73D5
S31500004CD42246694602F09CFD384605B0BDE8F08FD1
S31500004CE4002120462DF0B6F81023A3700323E370A9
S31500004CF4BAF1000FAAD1DBB243F03003A5E70B48A3
S31500004D04EBE70B48E9E70B48E7E7B8F1000FD4D126
S31500004D149CF8023068F304138CF80230CDE700BF28
S31500004D24483F0020C83D0020483E0020028000F095
S31500004D34018000F0078000F038B5104B05461B785B
S31500004D44BBB1C0B102F0EFFB00230D4901EB031226
S31500004D54147B3CB92B6001231460137302F0E9FB46
S31500004D64204638BD0133082BF0D102F0E2FB05489A
S31500004D74F7E70548F5E70548F3E700BF483F002095
S31500004D84C83D0020048000F0028000F0018000F09D
S31500004D9438B502F0C8FB002305460A4AD1180C7B35
S31500004DA45CB91033802BF9D102F0E4FC064B28469B
S31500004DB41C7002F0BEFB204638BD284602F0B9FB43
S31500004DC40248F9E7C83D0020483F0020058000F06E
S31500004DD40D4B10B51B78044693B1072812D802F080
S31500004DE4A2FB0A4B03EB04131A7B2AB100241C739F
S31500004DF402F09FFB204610BD02F09BFB0448FAE735
S31500004E040448F8E70448F6E7483F0020C83D002078
S31500004E14068000F0028000F0018000F0164B13B506
S31500004E241868002301908DF8043002F07CFB134BC4
S31500004E341C7824B102F07DFB114802B010BD01229A
S31500004E441A7002F076FB0F4B1C731C7783F82C4008
S31500004E5483F83C4083F84C4083F85C4083F86C400C
S31500004E6483F87C4004230DEB03008DF8073002F031
S31500004E74A5FC2046E1E700BF10200300483F0020C0
S31500004E84038000F0C83D002010B588B00E9C009247
S31500004E9407940D9C024606949DF8304005940B9C9D
S31500004EA404949DF8284003940024CDE90134204657
S31500004EB40B462146FFF780FE08B010BD10B588B03A
S31500004EC40E9C009207940D9C024606949DF8304071
S31500004ED405940B9C04949DF8284003940024CDE982
S31500004EE4013420460B460121FFF766FE08B010BDCB
S31500004EF408B50A4B1B785BB107280BD8084B03EBA4
S31500004F0400131B7B43B1002102F048FC002008BDBE
S31500004F140448FCE70448FAE70448F8E7483F002059
S31500004F24C83D0020028000F0018000F0078000F0F8
S31500004F3408B50A4B1B785BB107280BD8084B03EB63
S31500004F4400131B7B43B1012102F028FC002008BD9D
S31500004F540448FCE70448FAE70448F8E7483F002019
S31500004F64C83D0020028000F0018000F0078000F0B8
S31500004F7408B50A4B1B7853B107280AD8084B03EB2C
S31500004F8400131B7B3BB102F093FC002008BD0548CF
S31500004F94FCE70548FAE70548F8E700BF483F002064
S31500004FA4C83D0020028000F0018000F0078000F078
S31500004FB40D4B1B7893B1072812D889B10B4B03EB21
S31500004FC400131B7B73B10A4BDA6A012303FA00F060
S31500004FD410401ABF00200B700870704705487047D0
S31500004FE40548704705487047483F0020C83D0020E3
S31500004FF400000440028000F0018000F0078000F009
S315000050040D4B1B7893B1072812D889B10B4B03EBD0
S3150000501400131B7B73B10A4B1A6D012303FA00F0CC
S3150000502410401ABF00200B7008707047054870477F
S315000050340548704705487047483F0020C83D002092
S3150000504400000440028000F0018000F0078000F0B8
S315000050540B4B10B51B780C4663B107280CD859B115
S31500005064084B03EB00131B7B43B102F033FC2060B7
S31500005074002010BD0448FCE70448FAE70448F8E7B2
S31500005084483F0020C83D0020028000F0018000F067
S31500005094078000F02DE9F843174B1F6D5B6D1F4029
S315000050A400D5FEE701260025144CDFF85480DFF80E
S315000050B45490374217D02368C8F800609BB1A168A2
S315000050C462680131A16028469847637B012B0AD1A7
S315000050D448B909EB4513197B1A7F60F3410160F364
S315000050E4410219731A770135082D4FEA460604F171
S315000050F41004DED1BDE8F88300000440C83D00205A
S3150000510450200440483E002070B504460125084E50
S3150000511404B970BD94FAA4F0B0FA80F005FA00F36D
S3150000512424EA030456F82030002BF1D09847EFE721
S315000051344C3F00204FF00072044BC3F880211A60E4
S315000051444FF08062C3F880211A60704700E100E0E6
S3150000515438B504460D4602F0E6F9034B43F82450ED
S31500005164BDE8384002F0E5B94C3F0020084BD3F8BF
S315000051742404D3F82024104042F2204220F42A507A
S3150000518420F02A004004400C9850FFF7BDBF00BF32
S3150000519400C00340084BD3F82404D3F8202410405D
S315000051A442F2204220F4AA4020F055000004000CEC
S315000051B49850FFF7A9BF00BF00C003404FF09043CB
S315000051C49A6A1207FCD4186A704700002DE9F84F52
S315000051D44FF0000A80464FF000094FF0010B254CB2
S315000051E404F1A005237F84F81DA06BB1D4E9002344
S315000051F4994508BF9045104619460AD2B2EB0800F5
S3150000520463EB0901C4E900012834AC42EAD1BDE8E4
S31500005214F88FE37F33B92377A369002BF4D084F89E
S315000052241DB0F1E7B8EB0000D4E9026769EB0101B0
S3150000523432463B462CF032FCB01A67EB0301236975
S31500005244C4E90001002B62690BDD13441D2B636165
S31500005254E2D9461C41F100071E3BC4E900676361BD
S31500005264DAE7D31A1D2B6361D6D910F1FF3641F163
S31500005274FF37F1E7A03F002038B50025064C637FD1
S315000052841BB1A369216A284698470135042D04F108
S315000052942804F4D138BD00BFA03F00204FF090424F
S315000052A4936952691340DB0706D50122034B1A6042
S315000052B4034A136801331360704700BF1420004883
S315000052C44040002000214FF0FF324FF0FF3370B50D
S315000052D4174E7418257F3DB1D4E900459D4208BF99
S315000052E494423CBF22462B462831A029F1D1002402
S315000052F410490C705C1C08BFB2F1FF3F16D008259C
S315000053040D4C20600D4C256000256FF064049D4211
S3150000531408BF944238BF22464FF0904302441A64B1
S3150000532401220A709A6942F008029A6170BD00BFB0
S31500005334A03F0020943F0020903F00201420004806
S315000053440F4B70B51B780546BBB102F0ECF8282666
S3150000535400230C4906FB0312947F14B935B90A4C91
S3150000536407E00133042BF5D1084C02E001219177C3
S315000053742B6002F0DEF8204670BD054CFBE700BF4B
S31500005384953F0020A03F0020041000F0011000F01B
S31500005394061000F0032810B504460CD802F0C3F832
S315000053A42822064B02FB043300241C779C7702F068
S315000053B4C0F8204610BD0248FCE700BFA03F00200D
S315000053C4021000F070B51E4E3578002D35D14FF021
S315000053D4904408211B2001F0F5FE1A48057102F0DD
S315000053E4E1FA1949012002F0C3FA1F22A3692946EA
S315000053F423F01F03A361154B15481A604FF480620E
S31500005404144B2562C3F880211A60A369A02243F0D5
S315000054140103A3612CF01EFD0F4B1D700F4B1D7075
S315000054240F4B1D600F4B1D600F4B1D600123337026
S31500005434636813B1A36A002BFAD1002070BD00BFC4
S31500005444953F00200C380020123800201420004814
S31500005454A03F002000E100E08C3F0020943F0020A4
S31500005464983F002040400020444000202DE9F74F9B
S315000054749346674A804612780E461C46002A00F078
S31500005484C280032800F2C1804FF0280A02F04BF8CC
S31500005494604A07460AFB082A9AF81E10914629B95B
S315000054A402F047F85C4803B0BDE8F08FBBF1000F8B
S315000054B408D114B10C994046A047384602F039F891
S315000054C40020F0E7FFF77AFE4FF4004C0546002172
S315000054D44FF4FA70CAF818404FF47A720023ECFBC2
S315000054E40B012CF0DBFA0A4603461446012ECAE9E0
S315000054F402344AD14FF47A7303FB0BFB1E2303FBDE
S3150000550410B00F23CAF81000CAF814302823012259
S3150000551403FB0893D3E9020110F1010A1A7741F15A
S31500005524000B0C9AC3E900ABDE771A623B4B1B787F
S31500005534002BC2D13A4C3B4E2368019601331EBF61
S31500005544236801332360337833BB0822364B504635
S315000055541D60364B1A6000236FF064025B4508BF7A
S31500005564524538BF10464FF09043284418649A6950
S3150000557442F008029A610123019A13702368002BF2
S315000055849BD02368013B236097E710F1FF3042F17B
S31500005594FF31CAE90201B9E72368012BEED12823BA
S315000055A44FF0000A4FF0904B03FB08931E4E83F80E
S315000055B41CA0DBF8183023F00803CBF81830306849
S315000055C4281AFFF703FEFFF757FEBAF1000F04D1BE
S315000055D42823012003FB089318772846FFF772FE59
S315000055E4FFF7ECFD0546104B019A1868DBF84030CE
S315000055F4A5EB000C1B1A10780AF1010A0028BDD08D
S315000056049C45D6D2BAE70A484DE70A484BE700BF9D
S31500005614953F0020A03F0020031000F08C3F00209F
S31500005624983F0020943F0020903F0020142000481B
S31500005634061000F0021000F00E4B10B51B7804465D
S315000056449BB1032813D801F06EFF28220A4B02FBF4
S3150000565404339A7F1AB901F06CFF084810BD002480
S315000056641C7701F066FF2046F8E70548F6E705488B
S31500005674F4E700BF953F0020A03F0020031000F090
S31500005684061000F0021000F02DE9F843284B0546F9
S315000056941B780C46002B44D0032844D8002944D058
S315000056A401F041FF2822234B014602FB05339A7F72
S315000056B422B901F03EFF2048BDE8F8831A7F1AB9E3
S315000056C401F037FF1D48F7E7D3E90067FFF776FDDA
S315000056D41B4B05460846D3F8008001F02AFF00213B
S315000056E4A5EB08008F4208BF864215D3361A67EB2E
S315000056F40107B046B9464FF47A75A8FB052305FBA6
S31500005704093312F580404FEAD03243F1000142EAF0
S31500005714414222600020CFE74FF000084FF0000915
S31500005724E9E70848C8E70848C6E70848C4E700BFE9
S31500005734953F0020A03F0020031000F0051000F064
S31500005744903F0020061000F0021000F0041000F054
S3150000575470B501F0E8FE064608490C68FFF72EFD11
S315000057640546FFF79BFD0B689C42F6D1304601F0D7
S31500005774E0FE0022501944F1000170BD40400020B3
S315000057842DE910484FF47A74A0FB04BC04FB01CC49
S315000057941BF580424CF10003D00B40EA4340BDE8C0
S315000057A4108800002DE9F8434FF0904401F0BBFE49
S315000057B4A369626905461340194A23F009011B07C8
S315000057C4116025D501231749174E0B70FFF7F6FC18
S315000057D407468846DFF85490A36923F00803A361BB
S315000057E43068381AFFF7F2FCFFF746FD3846FFF734
S315000057F469FDFFF7E3FC3268236C811A9B1A99F85A
S31500005804002007460AB19942E6D2002388F8003000
S31500005814FFF744FD2846BDE8F84301F08ABE00BF01
S31500005824142000488C3F0020903F0020943F002025
S31500005834302390F84020416C5343094A1A4401230B
S315000058448B4011680B4203D190F84C100029F8D113
S3150000585490F84C300BB9806C70470020704700BF3D
S3150000586414C0034038B5144601F05DFE0023A3645A
S3150000587484F84C30E363237E0546012B02D1206D68
S31500005884FFF7DAFE236B1BB1A26B00212046984773
S31500005894284601F04EFE012038BD0000F0B5002672
S315000058A4044680F84E6005684FF44060A263686160
S315000058B42363236987B0082B174623D90126092BAE
S315000058C415BF05F12C0305F12003443538350F4A7D
S315000058D40494CDE90262012201970092606A0A46A5
S315000058E4E16AFFF7EBFA0023CDE90176CDE903334C
S315000058F400932A4604F11403A16A206AFFF7C4FA46
S3150000590407B0F0BD05F124033C35E0E76958000013
S315000059142DE9F0430446894600264FF440610568A4
S3150000592480F84E60A26369610363036987B0082B3C
S31500005934174626D90126092B15BF05F12C0305F1B7
S315000059442003443538354FF00008104AE16ACDE9A2
S315000059540262049404F134020197CDF80080606A6F
S31500005964FFF7ACFA0123CDE903880093CDE901766C
S315000059744B462A46A16A206AFFF786FA07B0BDE8B5
S31500005984F08305F124033C35DDE700BF69580000C8
S3150000599491F84C3013B5012B0C461ED10DF10601BE
S315000059A4606AFFF705FB9DF80630C3B1606AFFF72E
S315000059B4DFFA206AFFF7DCFA04F13C01606AFFF7BC
S315000059C447FB00230C4984F84C30236BA16423B1B4
S315000059D4D4E90E02821A2046984702B010BD0DF192
S315000059E40701206AFFF70CFB9DF80730002BF4D162
S315000059F4A36BE363E5E700BF052000F038B5054671
S31500005A04B0B1B9B1B2B1B2F5006F13DC01F08BFDE0
S31500005A1495F84C3003F0FF041BB101F08AFD0648EB
S31500005A2438BD012385F84C3001F083FD2046F7E7A5
S31500005A340248F5E70248F3E7032000F0012000F0EE
S31500005A44022000F02DE9F04786B06E460446994FD1
S31500005A540D460FCF0FC697E8030086E80300002C17
S31500005A6400F026811DB9944806B0BDE8F08754229B
S31500005A74002120462CF0EEF92B68904A934240F020
S31500005A84AF80202384F84D304FF480234FF0000874
S31500005A948B48C4E90A0326462F460FCF0FC697E85C
S31500005AA40F0086E80F006B7E012B08BF8DF80E30C1
S31500005AB4AB7E002B40F0B180ADF810302B7E012B6D
S31500005AC403BF00238DF80D304FF47A73EB6802930D
S31500005AD42B691A1F0C2AC6D8033B694628688DF819
S31500005AE40C3002F0EBF9AB6923F47F0323F47F4314
S31500005AF423B92A68936843F4803393602B7A2E790A
S31500005B04687946EA03466B7AAF7A6E4A95F81BC003
S31500005B1440EA03404FEA4813390408F12E081344B7
S31500005B24BCF1000F40F089801D2702EB4818AA79C2
S31500005B34C3F8AC751143C8F80460C3F8BC05C3F8D0
S31500005B44C015E97AEA7942EA0142C3F8B025E37A54
S31500005B54E27994F81880207994F80590A679217A48
S31500005B6494F809A0A77AC4E91023B8F1000F72D1FA
S31500005B744346042201F0BCFD4346012251464846F1
S31500005B8401F0B6FDA37E0422012B94BF43460123F4
S31500005B943946304601F0ACFDE37E33B901230422D5
S31500005BA4616C94F8400001F0A3FD01F0BCFC464B87
S31500005BB41A78002A69D101221A7001F0BAFCFFF79B
S31500005BC401FC2B7E012B63D0FFF728F9002104F199
S31500005BD42000FFF7B1F80146002861D03B4843E7AF
S31500005BE43B4A93420AD1212384F84D304FF4A02333
S31500005BF438494FF00108C4E90A134CE7364A934280
S31500005C047FF431AF222384F84D304FF4C023334A56
S31500005C144FF00208C4E90A233DE7012B02D14FF4F1
S31500005C24007349E7022B02D14FF4807344E7032B38
S31500005C347FF419AF4FF440733EE74FF01C0C02EBB0
S31500005C4448183943C3F8ACC5C8F80460C3F8BC05A2
S31500005C54C3F8C0157BE70023012201F049FD0023A8
S31500005C6404225146484601F043FDA37E0222012B3D
S31500005C7494BF002301233946304601F039FDE37E03
S31500005C84002B92D1012302228AE701F052FC98E705
S31500005C9404F15000FFF754FB002895D01048E3E6C2
S31500005CA404F12400FFF748F800283FF4DDAE95E739
S31500005CB40C48D9E614200300022000F000800540B9
S31500005CC40200040000C0034048400020092000F000
S31500005CD400C0054002000500000006400200060060
S31500005CE4042000F0012000F02DE9F04104460028CC
S31500005CF443D0406AFFF73CF9206AFFF739F9E37AA3
S31500005D04E279677994F80980C4E910232079217A25
S31500005D1400230222A579A67A01F0EAFC00230222D6
S31500005D244146384601F0E4FCA37E0222012B94BFCF
S31500005D34002301233146284601F0DAFCE37E2BB921
S31500005D441A46616C94F8400001F0D2FC237E012BC4
S31500005D5405D1206DFFF770FC206DFFF71BFB206853
S31500005D6401F0FEFF206AFFF733F8606AFFF730F8A8
S31500005D74FFF70EF80020BDE8F0810148FBE700BFFD
S31500005D84012000F038B5044670B301F0CCFB94F85A
S31500005D944C3005461BB901F0CCFB144838BD237EB4
S31500005DA4012B02D1206DFFF747FC606AFFF7E0F88C
S31500005DB4206AFFF7DDF804F13C01606AFFF748F951
S31500005DC4002384F84C300123094984F84E30236BB0
S31500005DD4A16423B1D4E90E02821A204698472846C4
S31500005DE401F0A7FB0020D9E70248D7E7062000F018
S31500005DF4072000F0012000F0F7B50E4615460446CC
S31500005E04C8B1D1B1CAB101F08EFB94F84C30074643
S31500005E1463B9E36B0193384601F08BFB0020A36B57
S31500005E24019A9B1A33602A6003B0F0BD01A9606A27
S31500005E34FFF70EF9EFE70248F6E70248F4E700BF7A
S31500005E44012000F0022000F02DE9F7439946037E75
S31500005E5404460F4690460A9EFBB1FFF7CFFD054662
S31500005E6480B936B1014600940D4B3246206DFFF7DA
S31500005E74FDFA237F012B09D04B464246394620467C
S31500005E84FFF70CFD284603B0BDE8F0832046FFF774
S31500005E94CFFC0028F0D00546F4E7024DF2E700BF38
S31500005EA495590000082000F02DE9F7439946037E32
S31500005EB404460F4690460A9EFBB1FFF79FFD054632
S31500005EC480B936B1014600940D4B3246206DFFF77A
S31500005ED4CDFA237F012B09D04B464246394620464C
S31500005EE4FFF716FD284603B0BDE8F0832046FFF70A
S31500005EF49FFC0028F0D00546F4E7024DF2E700BF08
S31500005F0495590000082000F0002211462D48F0B5EE
S31500005F1403682D4D54592CB11E68AC18002E3DD182
S31500005F24234601210832282AF4D101B10360002254
S31500005F3414462649264E0B6895592DB11F68B51887
S31500005F44002F32D12B4601240832282AF4D104B179
S31500005F540B6000680368002B2FD04FF04022936F2C
S31500005F64007923F0FF7323F4803343EA00439367F5
S31500005F74184B4FF0004209681A600B68FBB14FF0EA
S31500005F844022936F097923F4FF7323F001030B4333
S31500005F949367104B4FF080421A60F0BD1E79277943
S31500005FA4B74284BF23460121BCE71F7995F804C094
S31500005FB4BC453CBF2B460124C6E7074BD9E7064B35
S31500005FC4E8E700BF4C4000205C4000205040002021
S31500005FD484400020685000406860004010B50122EB
S31500005FE428240F4B00211A700E4822462BF032FF4C
S31500005FF4224600210C482BF02DFF0C4B0C4A136053
S315000060040C4A13604FF040430B4A1360536020223E
S315000060140A4BC3F880211A60FFF776FF002010BDF3
S31500006024494000205C400020844000205440002069
S315000060344C400020504000206460004000E100E035
S315000060444FF04023D3F888006FF48873C0F38800B8
S31500006054184440B2704700004FF0402208B5936ED2
S31500006064526E134013F0804111D0114B1B681A680D
S315000060742AB1002119605960FFF7E2FF90474FF0FB
S3150000608480420C4B1A60BDE80840FFF73DBF002B69
S31500006094F9DA094B1B681A682AB119605960FFF7C7
S315000060A4CFFF01219047034B4FF00042EAE700BFC0
S315000060B450400020646000404C400020FFF7CCBFF5
S315000060C4012203685A619A69D207FCD541F2AC529F
S315000060D4042103795B0103F1804303F5703399507E
S315000060E47047000038B141B1013AB2F5006F044877
S315000060F438BF00207047034870470148704700BF07
S31500006104037000F0027000F038B504460D4601F045
S315000061140AFAA28892B222B92A6001F00AFA06485B
S3150000612438BD1422638802FB034308332B6001F055
S3150000613400FA0020F4E700BF0B7000F038B50446FF
S315000061440D4601F0F0F9A3889BB223B92B6001F048
S31500006154F0F90C4838BD14226388E18802FB034336
S3150000616408332B6063885A1C92FBF1F301FB13235B
S315000061749BB26380A388013B9BB2A38001F0D9F94B
S315000061840020E7E70B7000F090F83130022B0BD1BA
S315000061943022437F90F821005A43044B9B5823FA3C
S315000061A400F000F0010070470020704714C003405F
S315000061B4002313B51C4A52F8234094F82110814257
S315000061C40ED00133042BF6D102B010BD0028FBD14A
S315000061D49DF80730002BF7D0A068FEF789FEF3E799
S315000061E494F83130022BEFD12046FFF7CDFF637EC2
S315000061F42076022BE8D194F82E3003F0FF02002B10
S31500006204E2D102A901F8012DA068FEF7D1FE237E92
S315000062141BB194F82F30002BD8D00023A06884F843
S315000062242F30FEF785FECFE7AC400020012230B5C3
S3150000623490F8324087B080F82C207CB9094D036869
S31500006244CDE9024504904C682433CDE900240A685C
S315000062544169C068FEF732FE07B030BD002380F8FE
S315000062642C30F9E7C1690000F8B5044617460D4617
S3150000627401F059F9A388E28806469A4205D8002314
S315000062843B6001F056F91648F8BD1422238805F13F
S31500006294100C02FB034308332A4603CA62451860FE
S315000062A45960154603F10803F6D1106814221860E4
S315000062B42388E18802FB034308333B602388304686
S315000062C45A1C92FBF1F301FB13239BB22380A38890
S315000062D401339BB2A38001F02CF90020D4E700BF60
S315000062E40A7000F02DE9F3410D460446002800F03B
S315000062F4868001F018F9012D064637D1A36A9B88DA
S315000063049BB2002B39D0A068FEF732FE0023A06AA8
S3150000631484F82D3083889BB2002B34D1226893698C
S315000063249B04FCD5023D012D1BD8E068FEF720FE38
S315000063340023606A84F82C3083889BB2002B41D1F9
S3150000634494F83130032B0CD042F2AC520421237959
S315000063545B0103F1804303F57033995002222368ED
S315000063645A61304601F0E5F8002009E0022D48D1D3
S31500006374636A9B889BB2002BD4D101F0DAF82648D5
S3150000638402B0BDE8F08101A9FFF7BEFE0199A0683D
S315000063940831FEF75DFE214F019B1F61A06A8388C9
S315000063A49BB2002BBAD001A9FFF7C8FE019BD3F814
S315000063B40C80B8F1000FF1D09B68002239462046C4
S315000063C4C047EBE76946FFF79FFE0099E06808318E
S315000063D4FEF73EFE114F009B1F61606A83889BB2E5
S315000063E4002BADD06946FFF7A9FE009BDD68002DA2
S315000063F4F3D09B68002239462046A847EDE70848B3
S31500006404BEE7032D8ED1A36A9B889BB2002B7FF433
S315000064147AAF636A73E700BF087000F0097000F092
S31500006424027000F0436A9888C0B270472DE9F041C3
S3150000643404460F469046FFF755FE0546002839D117
S31500006444152001F095F80646A26A93889BB213B10B
S3150000645494F82E308BB323689E6916F002060ED18B
S3150000646404225A619A699207FCD541F2AC52102172
S3150000647423795B0103F1804303F5703399500123BB
S3150000648484F8303094F8323033B9B844474520683C
S3150000649418D183699B06FCD566B942F2AC52102129
S315000064A423795B0103F1804303F570339950082285
S315000064B423685A612846BDE8F081002EC5D0FEF750
S315000064C4E9FDC1E717F8011B01F03CFDDEE700001A
S315000064D410B5044680B190F82E302BB9FFF754FE60
S315000064E410B9A068FEF704FD002094F82E3001339D
S315000064F4DBB284F82E3010BD0048FCE7027000F0D1
S3150000650410B50446A0B190F82E309BB190F82E3009
S31500006514012B05D1FFF738FE10B9A068FEF708FD78
S31500006524002094F82E30013BDBB284F82E3010BDE7
S315000065340148FCE70148FAE7027000F0057000F034
S3150000654437B590F831500446022D1ED1012190F83A
S315000065542220457E837F01FA02F23020154925B9AF
S3150000656400FB031342F2100105E0012D07D100FBE5
S31500006574031341F210015A50002003B030BD247EAB
S3150000658400FB0313002CF4D1ECE7012DF4D1037EB8
S3150000659473B911238DF80730FFF79AFF2A460DF1D8
S315000065A407012046FFF742FF2046FFF7A9FFE3E76E
S315000065B41323EFE700C00340F0B504468BB09E4FAB
S315000065C403AE0D460FCF0FC697E8070086E807000F
S315000065D41CB99A4C20460BB0F0BD0DB9984CF9E79E
S315000065E43422002120462BF035FC9649964A0B7836
S315000065F4002B40F0D3800120C2E90033C2E9023304
S31500006604087042F823402B7D286884F83130002333
S31500006614206084F832302B7B23718C4B984240F0F7
S31500006624CA80202384F82330894B23614FF48023C6
S3150000663400266361D5E90723626216805680968038
S3150000664484F82C60A3621E805E809E806B6803A91A
S315000066540593EB8984F82D60ADF81C302B8A84F8F9
S315000066642F60ADF81A30AB7C8DF80C608DF81830BD
S31500006674EB7C8DF81E3005238DF8193001F0A6FB4E
S3150000668414212A7B734B287A03EB4217C7F8AC15FF
S31500006694A97A2E3240EA014C03EB4213C3F804C034
S315000066A46A7AEB7A42EA034CC7F8BCC5E17784F808
S315000066B420306B7DE07622776377AB7D042284F805
S315000066C42130EB7DA3772B7E84F82230012301F061
S315000066D40FF80123022294F82010207F01F008F815
S315000066E494F83130022B7DD13346012294F82110DF
S315000066F4607F00F0FDFF3346042294F82210A07F49
S3150000670400F0F6FF012394F82120607F1146CDE9BD
S31500006714003300F0A7FF00F006FF2E7D0746032E88
S3150000672471D141F2AC5202212B7B04205B0103F1AF
S31500006734804303F57033995041F25C02296888500E
S31500006744297EEA7D42EA014241F2B8515A50A97DB6
S315000067546A7D42EA014241F2B4515A504FF0FF3287
S3150000676442F248032868C2502B7D032B0CBF052137
S31500006774042101F0E6FA4FF440622B685A61FEF7F1
S315000067844DFB002104F10800FEF7D6FA0146002865
S315000067944AD0314C384600F0CCFE1BE7002352F8B1
S315000067A4231000293FF42DAF8C423FF42AAF013366
S315000067B4042BF4D10DE7294B984207D1212384F801
S315000067C42330274B23614FF4A02331E7254B98420E
S315000067D47FF404AF222384F82330234B23614FF440
S315000067E4C02325E7032B96D1334694F82110607F06
S315000067F4012200F07DFF3346042294F82210A07F84
S3150000680400F076FF87E7022EA8D194F821001749F5
S31500006814FEF79EFCFEF78EFC00236676A3762376AF
S315000068242046FFF78DFE99E704F10C00FEF784FA83
S3150000683404460028AED0ACE72C200300027000F01A
S31500006844037000F0BC400020AC40002000800540EE
S315000068540200040000C003400E7000F000C00540B2
S31500006864020005000000064002000600B5610000B3
S3150000687490F83130032B05D00229417618BF0176F2
S31500006884FFF75EBE00487047057000F013B5044676
S31500006894002862D00321FFF725FD00212046FFF7DB
S315000068A4E7FF0023E17F1A46E07E00F021FF002384
S315000068B494F820101A46207F00F01AFF94F831301D
S315000068C4022B39D1002394F821101A46607F00F078
S315000068D40FFF002394F822101A46A07F00F008FF49
S315000068E40021012394F82120607FCDE9003111466F
S315000068F400F0B8FE94F8323013B90A2223685A61BC
S3150000690494F83130032B04D0002194F82100FEF7CB
S315000069141FFCA068FEF75CFAE068FEF759FAFEF77A
S3150000692437FA0020636A188058809880A36A188012
S315000069345880988002B010BD032BDBD1002394F855
S3150000694421101A46607F00F0D3FE002394F822102B
S315000069541A46A07F00F0CCFECCE70148EAE700BF68
S31500006964027000F0F0B587B004461646FFF7BAFB8E
S315000069740546E8B90493104BCDE901166A4601A908
S31500006984606A03960593FFF76FFC054680B994F891
S315000069942C306BB92046FFF793FB0099FFF746FCB2
S315000069A494F83130032B03D025762046FFF7C8FD33
S315000069B4284607B0F0BD00BF017000F073B5506AF9
S315000069C401A91446FFF7A0FB2F4B984230D094F848
S315000069D43200019B002839D12268916C11F40071B0
S315000069E429D02A499860196142F248034FF400718C
S315000069F4D15000F098FD01990646CD6835B14A6834
S31500006A048B682046D31A0A680969A84701A9606AEF
S31500006A14FFF794FB606A8588ADB2DDB101A9FFF783
S31500006A2473FB01992046FFF701FC304600F081FD17
S31500006A34012002B070BD906CC00507D5144899605A
S31500006A4418614FF4807142F24803D1E700221A61BB
S31500006A549A60CEE7012320462376FFF771FD94F86A
S31500006A64313084F82C50032BDFD042F2AC5204218F
S31500006A7423795B0103F1804303F5703399500222B5
S31500006A8423685A61D1E700BF0B7000F00D7000F067
S31500006A940C7000F070B588B00E22002104A82BF00B
S31500006AA4D9F901230D22002168468DF810302BF008
S31500006AB4D1F90223244C6A46002120468DF806307B
S31500006AC401F094F8236B4FF6FF73204EE361002325
S31500006AD43546ADF8123004A9204601F03AF80620EE
S31500006AE400F04AFABDF812300133B0FBF3F09BB262
S31500006AF4B3F5806F3060ADF8123002D2144B984271
S31500006B04E9D80E2000F038FA1249134CB1FBF0F123
S31500006B1428680025E1FB0045104A00232046294643
S31500006B242AF0BCFF0E4B084A186000200D4B187063
S31500006B34936923F01003936140220B4BC3F8802121
S31500006B441A6008B070BD00BF00800440C040002039
S31500006B5480841E0000B0710B20A1070040420F0084
S31500006B64C4400020C840002000E100E0F7B500253D
S31500006B741D4B1E4C19681E4AE0FB014500232046A6
S31500006B8429462AF08BFF4FF6E85400254FF6E75EB8
S31500006B944FF0FF37DFF860C0164E8D4208BF8442BF
S31500006BA411D380B260B1144A516A89B2536A9BB256
S31500006BB4ADF80630BDF806305B1A9BB29842F5D89C
S31500006BC4002003B0F0BDDCF8242092B2DCF82430B7
S31500006BD49BB2ADF80430BDF804309B1A9BB27345E2
S31500006BE4F4D980197941D8E7C040002020A10700D4
S31500006BF440420F001802FFFF00800440054B5A690B
S31500006C04D20606D542F21402102199500122024BF3
S31500006C141A70704700800440C840002038B5124BF3
S31500006C240546D3F820310C4603F00703013B032B3A
S31500006C3417D8DFE803F0020A0E1201F03DFA042326
S31500006C4405B1286004B1237038BD01F01FFA03238F
S31500006C54F6E701F03DFA0523F2E701F035FA0223DF
S31500006C64EEE700231846EBE70080004037B50C46F4
S31500006C740021114B0191D3F88031054603F003033B
S31500006C84022B0ED0032B11D0012B03D101A8FFF741
S31500006C94C5FF0D210DB1019B2B6004B1217003B01A
S31500006CA430BD01F015FA05210190F3E701F00CFA65
S31500006CB402210190EEE700BF0080004038B5104B7A
S31500006CC40546D3F840310C4603F00303022B0BD0E0
S31500006CD4032B0DD0012B0FD101F03EFA082305B189
S31500006CE4286004B1237038BD01F03CFA0723F6E7A7
S31500006CF401F035FA0923F2E700231846EFE700BF4F
S31500006D040080004038B5104B0546D3F860310C4678
S31500006D1403F00303022B0BD0032B0DD0012B0FD151
S31500006D2401F01AFA082305B1286004B1237038BDAE
S31500006D3401F018FA0723F6E701F011FA0923F2E73E
S31500006D4400231846EFE700BF0080004038B5134B18
S31500006D540546D3F800320C4603F00703013B032B28
S31500006D6418D8DFE803F0020A0E1201F0F5F9082339
S31500006D7405B1286004B1237038BD01F0F3F9072387
S31500006D84F6E701F0ECF90923F2E701F069F90C23BF
S31500006D94800AEDE700231846EAE700BF00800040BA
S31500006DA438B5134B0546D3F808320C4603F00703EF
S31500006DB4013B032B18D8DFE803F0020A0E1201F098
S31500006DC4CBF9082305B1286004B1237038BD01F05E
S31500006DD4C9F90723F6E701F0C2F90923F2E701F03E
S31500006DE43FF90C23800AEDE700231846EAE700BFC3
S31500006DF40080004038B5104B0546D3F840320C46A7
S31500006E0403F00303022B0BD0032B0DD0012B0FD160
S31500006E1401F0A2F9082305B1286004B1237038BD36
S31500006E2401F0A0F90723F6E701F099F90923F2E73F
S31500006E3400231846EFE700BF0080004038B5104B2A
S31500006E440546D3F800310C4603F00303022B0BD09E
S31500006E54032B0DD0012B0FD101F018F9032305B133
S31500006E64286004B1237038BD01F07CF90723F6E7E6
S31500006E7401F028F90623F2E701230020EFE700BF1B
S31500006E840080004041F671320F4B10B5D969DA63C0
S31500006E949A680E4C22F44012A04288BF42F4801233
S31500006EA49A600B4A0B4CD2F81832A04223F0020324
S31500006EB488BF43F0020301F48031C2F8183211B1DD
S31500006EC40022014BDA6310BD00000340C0175302D1
S31500006ED400C0074080F0FA0208B501F0D3F8BDE817
S31500006EE40840FFF7CFBF000002280CD007D80128BE
S31500006EF414D10B4B186FC0F30130013070470328CF
S31500006F0407D00E28F4E7064BD3F89000C0F30460CC
S31500006F14F3E7034B186FC0F38020EEE70020ECE79D
S31500006F240080004038B5134B0546D3F880300C4634
S31500006F3403F00303022B11D0032B13D0012B15D11D
S31500006F4401F08EF802460320FFF7CEFF0A23B2FBB8
S31500006F54F0F005B1286004B1237038BD01F080F863
S31500006F640B23F6E701F0B4F80523F2E700231846ED
S31500006F74EFE700BF00800040002307B501932428F3
S31500006F8417D8DFE800F0131A1D262B353A3F44497B
S31500006F944E53585D1A3F1616441A262B26351A3FA9
S31500006FA4265D3A3A3A3A262626494E0001F03EF83C
S31500006FB40190019803B05DF804FB01F051F8F7E77E
S31500006FC401F034F802460220FFF78EFFB2FBF0F020
S31500006FD4EEE701F045F802460320F5E701F040F834
S31500006FE402460320FFF780FFB2FBF0F04008DFE71C
S31500006FF4002101A8FFF73AFEDBE7002101A8FFF70D
S315000070040DFED6E7002101A8FFF758FED1E70021BF
S3150000701401A8FFF777FECCE7002101A8FFF796FE4B
S31500007024C7E7002101A8FFF7BBFEC2E7002101A8BC
S31500007034FFF704FFBDE7002101A8FFF773FFB8E7D8
S31500007044002101A8FFF7D6FEB3E7000002280AD004
S3150000705402D8012804D0704703280FD00E2815D172
S31500007064084600F02BB80A4A0139D2F8903023F0CA
S31500007074F85343EA0161C2F890107047044A013993
S31500007084136F23F4806343EA81211167704700BFBD
S315000070940080004002210320FFF7D8BF08B5012075
S315000070A4FFF76AFFBDE80840034988428CBF022106
S315000070B401210320FFF7CABF80F0FA0210B5044687
S315000070C4FFF70AFFFFF7E6FF074A013C106F20F4BB
S315000070D4405040EA0430106700F0C2FFFFF7D2FECA
S315000070E4BDE81040FFF7DABF00800040002307B573
S315000070F48DF80730242822D8DFE800F01321212157
S31500007104212C32383E444A50565C213821213E21F6
S315000071142121212C2138215C323232322121214491
S315000071244A00274B1B6F03F00703013B032B06D8CA
S31500007134DFE803F00E020A0C04238DF807309DF8ED
S31500007144070003B05DF804FB0323F6E70623F4E720
S315000071540223F2E70DF107010020FFF787FDEEE7B2
S315000071640DF107010020FFF759FDE8E70DF10701CE
S315000071740020FFF7A3FDE2E70DF107010020FFF76A
S31500007184C1FDDCE70DF107010020FFF7DFFDD6E7BF
S315000071940DF107010020FFF703FED0E70DF107010B
S315000071A40020FFF74BFECAE70DF107010020FFF7A9
S315000071B4B9FEC4E70DF107010020FFF71BFEBEE789
S315000071C40080004070B50C46242848D8DFE810F04B
S315000071D4250047004700470047005B006C007D0020
S315000071E48E009F00B000C100D200E30047007D007E
S315000071F4470047008E0047004700470047005B00F2
S3150000720447007D004700E3006C006C006C006C00D6
S315000072144700470047009F00B0008B1E042B2FD861
S31500007224DFE803F02B1E032E280000250226FFF7B5
S3150000723453FEFFF72FFF604A136F23F00703334310
S31500007244136700F00DFFFFF71DFEFFF727FF35B9A3
S31500007254032C04D142F228030121584AD15070BDAF
S3150000726441F228020121554B03269D6A9950C5F324
S315000072744005DCE700250426D9E700250126D6E7E4
S3150000728400252E46D3E78C1EE4B20B2C8CBF0021BE
S315000072944B4B494A98BF195DD2F8803123F003035A
S315000072A40B43C2F88031DAE78C1EE4B2032C8CBFA0
S315000072B40021444B404A98BF195DD2F8203123F08F
S315000072C407030B43C2F82031C9E7CC1FE4B2022CF2
S315000072D48CBF00213C4B384A98BF195DD2F8403127
S315000072E423F003030B43C2F84031B8E7CC1FE4B2E2
S315000072F4022C8CBF0021354B2F4A98BF195DD2F85A
S31500007304603123F003030B43C2F86031A7E7CC1FB7
S31500007314E4B2052C8CBF00212D4B274A98BF195D7A
S31500007324D2F8003223F007030B43C2F8003296E783
S31500007334CC1FE4B2052C8CBF0021264B1E4A98BFF5
S31500007344195DD2F8083223F007030B43C2F808325A
S3150000735485E7CC1EE4B2042C8CBF00211E4B164AD2
S3150000736498BF195DD2F8003123F003030B43C2F82A
S31500007374003174E705290CD00B290CBF022100212A
S315000073840D4AD2F8803023F003030B43C2F8803051
S3150000739465E70321F4E7CC1FE4B2022C8CBF00217D
S315000073A40E4B054A98BF195DD2F8403223F0030309
S315000073B40B43C2F8403252E70080004000C0004050
S315000073C448200300542003005820030058200300DB
S315000073D45B2003005B2003006120030058200300A8
S315000073E4F8B504460020FFF781FE03287BD045F656
S315000073F40E03424A0221C2F8803041F22803D150DA
S3150000740442F228030121D150916D11F48031FBD150
S31500007414637820781B0543EA0063A079374E03435B
S31500007424E078657C43EA0043207943EA00336079D7
S3150000743443EA80131361237AE0791B0643EA8063E7
S31500007444E07A0343607A43EA0043A07A43EA0023DE
S315000074549361637B126A002B18BF0821207B22F0FC
S315000074640D0243EA020343EA800341EA0301A37BD4
S3150000747431624FEA4317E37B207C4FEA031133461C
S3150000748432D1B26A22F0330242F001023A430A438D
S31500007494B2621B4A996D32EA0101FBD141F228021C
S315000074A402219950154A936D5B00FCD41169A378A7
S315000074B421F4700141EA0351116141F218034FF0BE
S315000074C40041D15018B942F228030221D15025B9FE
S315000074D442F228030121094AD150A37C1BB1074B70
S315000074E4084AC3F88020F8BDB36A23F033032B435C
S315000074F43B430B4343EA4003B362EEE700C000405C
S3150000750403000140F1A7FFFFEFF3108072B6704746
S3150000751400B962B67047302383F31188704700239D
S3150000752483F311887047EFF31180302383F31188B6
S31500007534704780F311887047EFF31083DB0706D496
S31500007544EFF311802F2894BF0020012070470120FB
S3150000755470470000054A410900F01F0352F8210054
S31500007564D840C04300F00100704700BF00E100E0CE
S3150000757410B50446EFF31083DB0733D4FFF7EAFFB5
S3150000758400282ED1002CABBF04F16044164B04F541
S31500007594614404F00F04ACBF94F800231A5D120989
S315000075A4EFF3118313B1B2EB131F1BD20F4C6368B5
S315000075B4C3F30803ABB1103BDBB259B20029B5BF24
S315000075C403F00F0301F16043043B03F56143B6BFC7
S315000075D41B1993F80003187E0009824234BF002069
S315000075E4012010BD0120FCE714ED00E000ED00E0F1
S315000075F470477047084A10B51369044643F00403FC
S315000076041361FFF7F5FF30BFFFF7F3FF1CB9BDE8C1
S31500007614104000F025BD10BD00ED00E0FFF7EABF05
S315000076244FF040234AF6E850DA6ED96E22F0030290
S3150000763442F0020241F003011866DA66D966DA6698
S31500007644D966DA66D966DA66D966DA6670474FF0BD
S315000076544022D36E017923F030030B43D36670477F
S3150000766470470000072A70B510D803249500184EF9
S31500007674AC403460A840A6F580563060154801F049
S3150000768403010460A940A0F5805001601249134823
S31500007694002B14BF0B460346012101FA02F21A60BD
S315000076A49DF810000E490F4B002808BF0B461A60C0
S315000076B442F220430C499DF81400CA500B4B01F5C5
S315000076C410512431002808BF0B461A6070BD00BF54
S315000076D400E4034008E4034010D4034010E40340EC
S315000076E414E4034014D4034000C0034024D40340EC
S315000076F4F0B54AB1012530241D4E8D4004FB0064CB
S315000077040BB341F21006A55130244443072904F172
S31500007714804404F5703419D80F2765688E00B74085
S3150000772425EA070502FA06F63543656052B90122D1
S3150000773402FA01F130220E4C02FB0040A3B141F2E1
S315000077441003C150F0BD42F21006DCE70F2701F129
S315000077548045083DE668AD00AF4026EA070602FA12
S3150000776405F53543E560E1E742F21003E9E700BFBA
S3150000777400C003404FF40012064BC3F88020BFF349
S315000077844F8FBFF36F8F0022FF21034B5A65996217
S315000077945A60704700E100E000000440054B064AC9
S315000077A400290CBF19461146012303FA00F00860AC
S315000077B4704700BF401004404020044030B50478B0
S315000077C445788178C27801200F4B41EA05412406A9
S315000077D458609C609961FF2199620021996319643C
S315000077E44FF000414FF0FF30596542F250015850B6
S315000077F44FF4001005491301DBB2C1F8800181F88A
S315000078041533086030BD00BF0000044000E100E00D
S315000078142DE9F0410C4601264FF0300EC3B29E40CE
S31500007824204D23688F7A91F80B8094F80DC0097B5C
S3150000783445F82030A5F580450EFB00504FEA085365
S3150000784443EA074343EA4153C0F860C0C36542F2C2
S31500007854500322F003020267EE50FFF764FE6B6DDD
S3150000786433436B65237A13B12B6C33432B64637AEE
S3150000787413B1AB6B3343AB6342F218012379A2799C
S3150000788442EA0342084B5A506179E27942EA0142DC
S3150000789441F218015A50054A16609E64BDE8F0414B
S315000078A4FFF747BE00400440000004403420044073
S315000078B410B50124C0B28440FFF735FE044B5A6D5F
S315000078C422EA04025A659C62BDE81040FFF731BE05
S315000078D400000440F8B50125C3B29D400446FFF7F5
S315000078E422FE3022094B02FB04341E6D5F6B646E6C
S315000078F4FFF71FFE3D4206D1C4F30A1008B935420C
S3150000790400D10130F8BD0020FCE700BF00000440B0
S3150000791441F67132034B0121DA6342F20C029950AB
S31500007924704700BF0000034041F67132044B012149
S31500007934DA6342F20C0299500022DA63704700BF00
S31500007944000003404FF40032014B1A60704700BF39
S31500007954705000404FF04023D3F8940070474FF026
S3150000796490435A6812B19A6A002AFAD17047000005
S31500007974CB784A7810B55B010C7843EA82030A791E
S31500007984234343EA02130C22424302F19042136357
S31500007994012C02BF8A78024B43F8202010BD00BF99
S315000079A4D08003404FF090435B6870B50BB1FFF78E
S315000079B4D6FF0121104B0679196083784578002B90
S315000079C4C37814BF02240024002B14BF042200220F
S315000079D44379DB0043EA06132B43234313434FF057
S315000079E490429360054B19600378002B14BF0B4635
S315000079F40223D36070BD00BF042000480410004871
S31500007A044FF098435A6CD202FCD5586D00F470209E
S31500007A147047436813B9416070475B685A68012A26
S31500007A24FBD159607047836813B9816070475B68FE
S31500007A345A68012AFBD159607047C369032B9FBF5B
S31500007A4400EB83020133D160C3617047C369042B21
S31500007A5415D84FF09842116CC902FCD504339B002B
S31500007A6413650168103B116041680C30116050F8D1
S31500007A74041C034411604FF09842984200D17047A9
S31500007A8450F8041B1160F8E770B58CB0144605462F
S31500007A941C220E4605A800212AF0DCF90D4B01969E
S31500007AA40493012301A9029304A844F00053039309
S31500007AB4FFF7AFFF294604A8FFF7BFFF214604A836
S31500007AC4FFF7BBFF04A8FFF7C1FFFFF799FF0CB050
S31500007AD470BD00BF00000943054B5B69C3F3851203
S31500007AE4827003F03F021B0B42700370704700BFA5
S31500007AF400C0074030B5114CA04216D004F58044AE
S31500007B04A04214D004F58044A04212D004F5804467
S31500007B14A0420CBF03204FF0FF30094C062553B199
S31500007B2405FB001044F8202030BD0020F5E70120B5
S31500007B34F3E70220F1E71202F2E700BF00800440F7
S31500007B441C810340036BDA0702D503695B06F9D48B
S31500007B54704710B50446FFF7F5FF012242F23003E1
S31500007B64C2500B7948881B0243EA8043487A034390
S31500007B744878002814BF402000200343887A002850
S31500007B8414BF802000200343C87A002814BF202095
S31500007B9400200343087B002814BF10200020034361
S31500007BA4487B002814BF0820002003438879002856
S31500007BB414BF4FF4803000200343636041F2300366
S31500007BC4E2500A780AB90223E3600023C8796362A3
S31500007BD40B7A497943EA8003002914BF1021002156
S31500007BE40B43A3600AB10123E36010BD70B51546CB
S31500007BF40646FFF7A7FF42F230030122C250EA7994
S31500007C04EC7A002A6A7A14BF4FF480100020002A06
S31500007C1414BF10220022AB7943EAC443034313433F
S31500007C2406EB411423662B7A33B32B7B226E304644
S31500007C3442EA4342226613F1FF3318BF0123AA78AE
S31500007C44FFF758FF41F230030122F2506B782A788D
S31500007C541B0643EA8263EA7843EA02332A7943EA53
S31500007C6482236A7943EA0223AA7A002A14BF0422E9
S31500007C7400221343636670BD236E2366E2E70000A9
S31500007C840D4B984208D1A3F50033C3F88411C36D94
S31500007C9443F08003C3657047084B984204D1A3F5AB
S31500007CA41033C3F89411F2E7054B984204BFA3F5C9
S31500007CB42033C3F8A411EAE70080054000C005405C
S31500007CC40000064070B5054616461C4619B9032041
S31500007CD4FFF752F90146202C08D001D8ECB170BD4B
S31500007CE4402C18D0602CFAD1042200E0082206FBAE
S31500007CF402F35A0802EB4112B2FBF3F2084B203AA4
S31500007D0403EAC202AB6823F06003AB60AB681C43B2
S31500007D14AC60EA61E3E70622E9E71022E7E700BF81
S31500007D24F8FF7F0038B50546144619B90320FFF756
S31500007D3423F9014601396400B1FBF4F10902E96152
S31500007D4438BD012241F20403C250CB43934003F0F1
S31500007D540A034361416111B942F20403C2507047F8
S31500007D6441F204030122C25040F6AA6341F205021D
S31500007D74436100238360C365C26042F2480210492E
S31500007D840361C361C36481500E4A8365904206D081
S31500007D940D49884203D001F5804188420BD19042B7
S31500007DA4036506D0084B984203D003F580439842F6
S31500007DB401D10023436542F204030122C2507047F5
S31500007DC4FFFF01000080054000C0054038B50D46A0
S31500007DD40446FFF7C5FF41F204030122C250AB7CFF
S31500007DE41BB1836843F080438360EB7C1BB1297D20
S31500007DF42046FFF745FF2A8A6B7B20461343EA8910
S31500007E041343E360D5E901122B7BFFF75BFF6B7D20
S31500007E141BB1A36843F48033A360AB7DEA7D1B07E3
S31500007E24120502F4E00203F0E043297E1343A3653E
S31500007E348B1E012B1E4A1F4B21D894421BD002F5E0
S31500007E448042944219D002F5804294420CBF022229
S31500007E544FF0FF3203EB4213022041F2AC520329E6
S31500007E6498500CBF41F25C0342F25C030422E250D8
S31500007E742B78636138BD0022ECE70122EAE79442DD
S31500007E8411D00D4A944210D002F5804294420CBFA0
S31500007E9402224FF0FF3203EB4213022042F2AC52AD
S31500007EA401299850DDE70022F5E70122F3E700BF38
S31500007EB40080054000C0034000C0054038B50D46AB
S31500007EC40446FFF74DFF41F204030122A97BC25089
S31500007ED42A8A8368002942F0010214BF4FF48061A4
S31500007EE4002113432A7D0B43002A14BF4FF000528E
S31500007EF400228360836813438360AB7C13B1E97CFF
S31500007F04FFF7BEFED5E901122B7B204643F48053CE
S31500007F14E360FFF707FF6B7B0BB1102363616B7D97
S31500007F241BB1A36843F48033A360AB7DEA7D1B07D2
S31500007F34120503F0E04302F4E0021343A3652B7831
S31500007F44636138BD83695B06FCD5C16370474369C9
S31500007F54002B07DB39B9436ADB07FCD442F204037E
S31500007F640122C250704741F20403F9E7436810B591
S31500007F74DA0704460AD5FFF7D6FA636ADB075CBF5D
S31500007F840123E360BDE81040FFF7D3BA10BDF8B58E
S31500007F94436805460C4633B16B6A002BFCD142F2AA
S31500007FA404030122EA506378227A002BA37814BFD3
S31500007FB44FF0100C4FF0000C002BE37814BF02278F
S31500007FC40027002B237914BF04260026002B637A8E
S31500007FD414BF08200020002B14BF4FF48071002129
S31500007FE4E379120742EA0362A37942EA034343EAC6
S31500007FF40C033B43334303430B43AB6021782846CE
S31500008004FFF7A5FF63790BB100232B62F8BD0000CF
S31500008014044B054A9A60D3F8882042F47002C3F8E8
S315000080248820704700ED00E000410000084B1B6FFC
S3150000803403F00703022B04D0032B05D0012B05D034
S31500008044FEE7044B18687047034BFBE70348704789
S31500008054008000401C38002020380020002D31010B
S3150000806408B5FFF7E3FF054B1B6FC3F30133013379
S31500008074B0FBF3F0024B186008BD00BF008000405F
S31500008084183800200048704700B4C404014B18682F
S31500008094704700BF20380020054B1860054B1B6F46
S315000080A403F00703032B01D1FFF7DABF704700BFC4
S315000080B42038002000800040014B1868704700BF3C
S315000080C41C3800200020704700487047002D3101FD
S315000080D4174B9868C0F304400C2826D8DFE800F054
S315000080E4092525252525071B1D251F2123001148A4
S315000080F470479B6803F04073B3F1807F07D0B3F1F8
S31500008104007F06D00C4A002B08BF104670470B4868
S3150000811470470B4870470B4870470B4870470B482D
S3150000812470470B4870470B4870470020704700BFE4
S315000081340040014A405DC60000093D0080841E00DF
S3150000814440420F000024F400C0EA210180BA8C01E9
S315000081540048E801005A62024FF4004070474FF4A9
S315000081647A707047014B1868704700BF24380020A6
S3150000817408B528231B689B69DB0205D5012803D8AB
S3150000818440F2022023F042F9012008BD28231B688F
S315000081949868030E14BF4FF480530023020C14BFD7
S315000081A44FF480720022134300280CBF184643F094
S315000081B40100704770B50438C6B0FA2801F2E586A6
S315000081C4DFE810F01402E30EE30EE30E1D02E30EE5
S315000081D4E30EE30EE30EE30EE30EE30EB703A5038D
S315000081E4E30EE30E300AF403FF036E037D03E30E8E
S315000081F45404E30EE30E6C044301CB02F5021B01A7
S315000082048803E30EE30E1608E30EE30EE7012602E7
S31500008214880CE70CA70C940C750CD40C140DE30E07
S31500008224E30E1A05A406A501C20540050806830641
S315000082343506E102FB00B201E30EE30EE503F205A7
S315000082442605E30EE30EE30EE30EE30EE30EE30E62
S31500008254520196017D01E30EE30EE30E7407E30E6D
S31500008264E30EE30EE30EE30EE30EE30EE30EE30E7C
S315000082745A077704D306ED0689049E040405EA0426
S31500008284E30ED4042B07E30EEE08460A600A6909D6
S315000082947F093409B10ADF09E30EC40A3D0CAF09AC
S315000082A48E0A050BF90A4F093909E80AE30EBB01E0
S315000082B463035A02E30EE30E0C07BF04E30EE30E58
S315000082C47905860D230DA50DBD0D990DB10D470D2F
S315000082D45D0D2F0D700D3B0DE30EE30EE30EE30E65
S315000082E4E30EE30EE30EE30E6D06E30EE30E300437
S315000082F40A04E30EFF00E30EE30ED60DE30E100EA2
S31500008304C80E4C0E820E9A0E360EE30E160B380B62
S31500008314E30EE30EE30EE30EE30E0D09670E2809E2
S3150000832428086308C7089708E30EE30EE30ED5078B
S31500008334A507E30E1B085A08C9078608A50B9E0263
S31500008344B502C002E30EE30E570BE30E8E0BB50B1C
S31500008354E30EE30EE30EE30E060AA90842048502C1
S31500008364E30E2F018B08F407E80742084E08B1070D
S31500008374BD0700080B08260C420C5E0C520C010CBF
S31500008384FC0BE30EE30EE30EE30EE30E8E0EE30E9A
S31500008394F30DE30EAB0EBC0E230EFC06E30EE30E4A
S315000083A4E30EB0041F07E30EE30E9A032E035103F4
S315000083B419030003E30E3B0292070124204646B04C
S315000083C470BD12AB01930AAB00930CAA24ABC5494A
S315000083D4012010F005FFBDF848309DF828202499A7
S315000083E4BDF830001EF000FB46AA02F8EC0DBE49AB
S315000083F4002010F0F5FE0124E0E724AB0CAABB49EB
S31500008404012010F0EDFE24999DF8300009F0C6FB1A
S3150000841446AA02F8D00DB449002010F0E1FE01246A
S31500008424CCE70CAB24AAB249012010F0D9FE9DF882
S315000084343010249815F02AFB46AA02F8D00DAA4952
S31500008444002010F0CDFE0124B8E724A810F09EFC0D
S3150000845424A817F037FE46AA02F8D00DA249002038
S3150000846410F0BEFE0124A9E70CAA9F49012010F0D2
S31500008474B7FE24A99DF8300009F08EFB46AA02F83F
S31500008484D00D9949002010F0ABFE24A9082010F065
S3150000849467FC9DF8980010F02BFCBDF89A0010F0CC
S315000084A437FC9DF89C0010F023FC9DF89D0010F00D
S315000084B41FFC9DF89E0010F01BFC01247EE786231A
S315000084C40BAA894901208DF8483010F089FE24A9A9
S315000084D49DF82C0009F067FB46AA12AB02F8E80DDA
S315000084E484490093002024AB10F07AFE012465E74A
S315000084F424A81EF01FFF46AA02F8D00D7A490020D0
S3150000850410F06EFE24A810F034FE012456E724A8C9
S315000085141EF00CFF46AA02F8D00D24AB76490020C3
S3150000852410F05EFE012449E7012446AA02F8884DAC
S315000085346D49002010F054FE40E70CAA6A49012058
S3150000854410F04EFE24A99DF8300020F0A5F946AAA5
S3150000855402F8D00D6449002010F042FEBDF89000E8
S3150000856410F0D6FB9DF8920010F0C2FB9DF8930024
S3150000857410F0BEFB9DF8940010F0BAFB9DF8950030
S3150000858410F0B6FB0DF19601082010F0E9FB01246A
S3150000859414E724A912A809F0C5FA46AA02F8E80DB8
S315000085A412AB5549002010F01BFE24A9082010F038
S315000085B4D7FBBDF8980010F0ABFB9DF89A0010F0BD
S315000085C497FB9DF89B0010F093FB9DF89C0010F020
S315000085D48FFBBDF89E0010F09BFB9DF8A00010F0E9
S315000085E487FB299810F0A8FB0124E7E6012446AA94
S315000085F402F8884D3C49002010F0F2FDDEE600202A
S3150000860446AA02F8880D384910F0EAFD0124D5E699
S31500008614082312AC214624A88DF8303009F0AAFAB2
S3150000862446AA0CAB02F8EC0D3449019400930020E1
S3150000863424AB10F0D5FD0124C0E60CAA2A4901207A
S3150000864410F0CEFD24A99DF8300015F0FBFA46AAD9
S3150000865402F8D00D2449002010F0C2FD9DF89000C8
S3150000866410F046FB9DF8910010F042FB9DF8920035
S3150000867410F03EFB0124A1E60CAA1B49012010F0D0
S31500008684AFFD24A99DF830001FF0CAF846AA02F8E7
S31500008694D00D1549002010F0A3FDBDF8900010F090
S315000086A437FBBDF8920010F033FB9DF8940010F0F0
S315000086B41FFB9DF8950010F01BFB9DF8960010F02B
S315000086C417FB9DF8970010F013FB012476E609F0DA
S315000086D4D1F946AA02F8880D0349002010F080FD5E
S315000086E401246BE6A8200300F6200300AD20030056
S315000086F4CA2003004D2C0300C6200300B02003004B
S3150000870412AC0BAABD49012010F06AFD224624A929
S315000087149DF82C0009F0B0F946AA02F8E80D24AB3E
S315000087240094B749002010F05BFD012446E609F0E9
S31500008734A7F946AA02F8880DB049002010F050FDAA
S3150000874401243BE609F09AF946AA02F8880DAB49DA
S31500008754002010F045FD012430E60CAAA7490120AB
S3150000876410F03EFD24A810F011FB24A99DF830005A
S3150000877417F054FD46AA02F8D00DA049002010F0C7
S315000087842FFD01241AE601240BAA9C49012010F0AE
S3150000879427FD0CAA12AB9B49012010F021FD46AA25
S315000087A402F8884D9549002010F01AFD06E619F0E6
S315000087B41DF846AA02F8880D9049002010F010FD15
S315000087C40124FBE512AB00930BAA0CAB8E490120E6
S315000087D410F006FD9DF848209DF830109DF82C00F9
S315000087E421F0C6FF46AA02F8880D8449002010F03D
S315000087F4F7FC0124E2E512AB0CAA8449012010F02F
S31500008804EFFC9DF948109DF8300021F0AFFF46AA11
S3150000881402F8880D7949002010F0E2FC0124CDE528
S3150000882412AB02930CAB01930BAB00930DF1260232
S315000088340AAB7749012010F0D3FC9DF848409DF916
S3150000884430309DF82C209DF8281000949DF82600C1
S3150000885421F088FF46AA02F8880D6849002010F026
S31500008864BFFC0124AAE512AA6449012010F0B8FC51
S315000088749DF8480021F078FF46AA02F8880D5F4962
S31500008884002010F0ADFC012498E51FF0F9FF46AA7C
S3150000889402F8880D5949002010F0A2FC01248DE548
S315000088A424A810F0F3FA24A817F020FD46AA02F82B
S315000088B4D00D5249002010F093FC01247EE515F0FA
S315000088C465F946AA02F8880D4C49002010F088FC88
S315000088D4012473E512AA4949012010F081FC9DF890
S315000088E4480017F023F846AA02F8880D43490020E9
S315000088F410F076FC012461E505F0CAFD46AA02F8EB
S31500008904880D3E49002010F06BFC012456E512AA9E
S315000089143A49012010F064FC9DF8480009F01DFD59
S3150000892446AA02F8880D3549002010F059FC0124A6
S3150000893444E50AAB04930DF12603039309AB0293B2
S3150000894424AB019312AB00930DF122020CAB314917
S31500008954012010F045FC9DF82840BDF890300294A3
S315000089649DF82640BDF8482001949DF82440BDF8A2
S31500008974301000949DF8220022F026FC46AA02F844
S31500008984EC0D1E49002010F02BFC012416E524A84A
S3150000899410F0FCFB24A81EF0CBFC46AA02F8D00D6E
S315000089A41649002010F01CFC012407E524AA1A49E4
S315000089B4012010F015FC194BBDF8902001241A80F3
S315000089C4FCE424AA1449012010F00AFC144BBDF857
S315000089D4902001241A80F1E412AA0849012010F01B
S315000089E4FFFB9DF8480017F07FF946AA02F8880DA8
S315000089F40249002010F0F4FB0124DFE4F620030012
S31500008A04B4200300BE200300C5200300B8200300E1
S31500008A14BB200300C1200300B22003007C3C0020DD
S31500008A24823C002012AABD49012010F0D9FB9DF911
S31500008A34480015F043F946AA02F8880DB849002003
S31500008A4410F0CEFB0124B9E412AAB549012010F0B6
S31500008A54C7FB9DF8480009F00BF846AA02F8880DF2
S31500008A64AF49002010F0BCFB0124A7E40CAB009333
S31500008A740BAA24ABAB49012010F0B2FB9DF83020C1
S31500008A8424999DF82C0014F0DFFC46AA02F8D00DB8
S31500008A94A349002010F0A4FB01248FE414F0A0FDE8
S31500008AA446AA02F8880D9E49002010F099FB01247D
S31500008AB484E412AA9A49012010F092FB9DF848001A
S31500008AC41DF061FB46AA02F8880D9549002010F0B6
S31500008AD487FB012472E408230CAA914901208DF82E
S31500008AE4483010F07DFB24A99DF830001EF0EEF806
S31500008AF412AB24AA8C49002010F072FB01245DE419
S31500008B0412AA8749012010F06BFB9DF848001EF05D
S31500008B14F5F846AA22F8880D8449002010F060FB77
S31500008B2401244BE424A817F0ADFF46AA02F8D00DA1
S31500008B347B49002010F054FB24A810F06EF90124A0
S31500008B443CE4082246AB03F8E82D774924AA012021
S31500008B5410F046FB24A81EF0EDF946AA02F8D00D43
S31500008B646F49002010F03CFB012427E40CAA6C4951
S31500008B74012010F035FB24A99DF8300008F0A6FF6B
S31500008B8446AA02F8D00D6649002010F029FB24A855
S31500008B9410F030F9012411E4082312AA63490120D4
S31500008BA48DF8303010F01CFB24A9BDF8480015F0F0
S31500008BB433FA46AA0CAB02F8EC0D5D49009300208B
S31500008BC424AB10F00DFB0124FFF7F8BB082246ABDB
S31500008BD403F8E82D544924AA012010F001FB24A827
S31500008BE415F0FEF946AA22F8D00D5049002010F0DF
S31500008BF4F7FA0124FFF7E2BB1CF084F846AA02F850
S31500008C04880D4749002010F0EBFA0124FFF7D6BB84
S31500008C140CAB009324AA0BAB4649012010F0E0FAF2
S31500008C249DF830209DF82C10BDF8900008F0AAF9A4
S31500008C3446AA02F8D00D3A49002010F0D1FA0124D0
S31500008C44FFF7BCBB08AB0BAA3B49009301200CAB56
S31500008C5410F0C6FA24A810F0B5F809AB12AACDE9AB
S31500008C64003202930DF121020DF122033349012052
S31500008C7410F0B6FA129B0AAC03939DF824309DF8C3
S31500008C84202002939DF82230BDF8301001939DF800
S31500008C94213004940093BDF82C0024AB08F082FE26
S31500008CA446AA02F8F20D23462549002010F098FA48
S31500008CB40124FFF783BB08238DF821308DF8263075
S31500008CC40DF1220302930BAB01930DF1210324ACA6
S31500008CD4009308AA12AB1B4901200AAE0CAD10F092
S31500008CE47FFA9DF82230BDF82C20009412A99DF835
S31500008CF420000296019508F0C5FE46AA0DF126034A
S31500008D0402F8F40D0F490093CDE9015623460020DD
S31500008D1410F066FA0124FFF751BB00BF952C03003F
S31500008D24F6200300C9200300FA200300B220030042
S31500008D344D2C0300CD200300D1200300DB200300CB
S31500008D44C6200300D52003000CAABF49012010F059
S31500008D5447FA24A810F036F80DF1260312AACDE935
S31500008D64003202930DF1220209ABB849012010F03A
S31500008D7437FA12990BAC01919DF826109DF8243010
S31500008D849DF8222002940091BDF8300024A908F031
S31500008D94B1FD46AA02F8F00D2346AD49002010F0B5
S31500008DA41FFA0124FFF70ABB0CAB24AAA949012028
S31500008DB410F016FA9DF83010BDF8900019F07AF804
S31500008DC446AA02F8D00DA449002010F009FA01249D
S31500008DD4FFF7F4BA24A80FF0F5FF0AAB12AACDE9FF
S31500008DE4013203930DF1260300930DF1220209AB20
S31500008DF49A49012010F0F4F912980CAC01909DF8F0
S31500008E0428009DF826309DF824209DF8221002940F
S31500008E14009024A808F07AFD46AA02F8EC0D234631
S31500008E248B49002010F0DCF90124FFF7C7BA24A807
S31500008E340FF0C8FF0DF1260312AACDE903320593FC
S31500008E4409AB02930DF1220301930CAB009308AA1C
S31500008E540DF121038249012010F0C2F912980BACDE
S31500008E6403909DF82600BDF8303002909DF824004A
S31500008E749DF8212001909DF822009DF8201004946D
S31500008E84009024A808F05AFD46AA02F8F00D2346DD
S31500008E946F49002010F0A4F90124FFF78FBA0CAA39
S31500008EA4009224AB6F49012010F09AF924999DF899
S31500008EB4300008F036FD46AA02F8D00D66490020B7
S31500008EC410F08EF90124FFF779BA0CAA5E49012045
S31500008ED410F086F924A80FF075FF0AAA009212ABC7
S31500008EE46049012010F07CF9129B9DF8282024A9E2
S31500008EF4BDF8300008F08AFD46AA02F8EC0D564982
S31500008F04002010F06DF90124FFF758BA0CAB0DF1EF
S31500008F1422025549012010F063F924A80FF052FFEC
S31500008F240DF1260312AA01930092504909AA0120C1
S31500008F3410F056F9129A0BAC01929DF826209DF872
S31500008F442430BDF83010029400929DF8220024AA21
S31500008F5408F0C8FC46AA02F8F00D23463C49002056
S31500008F6410F03EF90124FFF729BA08238DF83030B2
S31500008F740CAB0BAA00933E4924AB012010F030F948
S31500008F8424A99DF82C001DF0F9FF46AA02F8D00D7D
S31500008F943149002010F024F90124FFF70FBA24AB5D
S31500008FA412AA3149012010F01BF9BDF890109DF862
S31500008FB448001DF059FE0124FFF700BA24A817F053
S31500008FC48DFD46AA02F8D00D2349002010F008F9B9
S31500008FD424A80FF022FF0124FFF7F0B9082246ABBC
S31500008FE403F8E82D12AA0092224924AA012010F0BF
S31500008FF4F7F89DF8481024A81EF000F80124FFF79E
S31500009004DDB924AA1449012010F0EAF89DF890006D
S315000090141AF076F90124FFF7D1B90CAA0E490120FA
S3150000902410F0DEF824A80FF0EFFE24A99DF8300016
S3150000903408F062FD46AA02F8D00D0749002010F098
S31500009044CFF80124FFF7BAB9B2200300DB200300EE
S31500009054C6200300D7200300F6200300DA2003000D
S31500009064E0200300522C0300FF200300DC20030051
S315000090744D2C0300F52003000BAB24AA01930092A8
S31500009084C04912AA012010F0ABF8249A9DF82C10BE
S31500009094BDF8480008F038FA46AA02F8E80DBA49BD
S315000090A4002010F09DF80124FFF788B908238DF8F5
S315000090B4283012AB01930AAB00930CAA24ABB34934
S315000090C4012010F08DF8BDF8482024A9BDF8300021
S315000090D408F067FD46AA02F8EC0DAB49002010F033
S315000090E47FF80124FFF76AB912AAA749012010F0F4
S315000090F477F89DF8480016F0D9FD46AA02F8880DBF
S31500009104A149002010F06CF80124FFF757B902F0CA
S31500009114C5FE46AA02F8880D9B49002010F060F8A7
S315000091240124FFF74BB903F00DFE46AA42F8880D59
S315000091349749002010F054F80124FFF73FB903F0D3
S3150000914407FE46AA42F8880D9149002010F048F817
S315000091540124FFF733B903F034FB46AA02F8880D5D
S315000091648949002010F03CF80124FFF727B912AA18
S315000091748549012010F034F89DF8480002F090FE6D
S3150000918446AA02F8880D8049002010F029F8012427
S31500009194FFF714B924AA7F49012010F021F8BDF87D
S315000091A4900003F0C3FD0124FFF708B924AA764909
S315000091B4012010F015F89DF8900003F009F9012438
S315000091C4FFF7FCB824AA7249012010F009F8249884
S315000091D403F0C4FD0124FFF7F1B824AA6C49012069
S315000091E40FF0FEFF249803F0BFFD0124FFF7E6B855
S315000091F403F0A0FA0124FFF7E1B824A912A803F0AA
S31500009204D1FA12A80FF078FE24A80FF0A6FE0124C6
S31500009214FFF7D4B824A80FF04BFE0CAB0BAA5E499B
S3150000922401200FF0DDFF9DF930209DF82C1024A8B5
S3150000923402F02AFE46AA02F8D00D534900200FF088
S31500009244CFFF0124FFF7BAB803F010F846AA02F8D4
S31500009254880D4D4900200FF0C3FF0124FFF7AEB877
S3150000926403F028F946AA02F8880D474900200FF0B2
S31500009274B7FF0124FFF7A2B824A80FF056FE24A8CE
S3150000928403F099FA0124FFF799B812A910200FF0F8
S3150000929421FD0FF05BFD24900FF014FD0DF19501F7
S315000092A48DF8940010200FF015FD0DF1A501102086
S315000092B40FF010FD24A912A803F053F846AA02F8E9
S315000092C4E80D314900200FF08BFF0124FFF776B833
S315000092D404F0B5FC0124FFF771B824AA2A49012039
S315000092E40FF07EFF9DF8900003F044F90124FFF788
S315000092F465B824AA264901200FF072FF249803F0CA
S3150000930401F946AA02F8D00D1F4900200FF068FFA4
S315000093140124FFF753B80FF019FD24900FF0D2FC87
S315000093240DF195018DF8940010200FF0D3FC0DF18A
S31500009334A50110200FF0CEFC24A803F00DF846AAD0
S3150000934402F8D00D104900200FF04AFF0124FFF760
S3150000935435B80CAB009324AA0BAB104901200FF0CF
S315000093643FFF9DF830209DF92C10249803F036F821
S3150000937446AA02F8D00D044900200FF031FF01245B
S31500009384FFF71CB8E8200300F6200300EC200300D6
S31500009394AE200300B2200300B8200300F02003002F
S315000093A4082246AB03F8F02D0BAA0092C84912AA6C
S315000093B401200FF015FF24A910200FF08BFC24AA1E
S315000093C49DF82C1012A80CF013FB46AA02F8E80D1F
S315000093D4C04900200FF004FF0124FEF7EFBF082266
S315000093E446AB03F8EC2DBC4912AA01200FF0F8FE97
S315000093F424A910200FF06EFC24A912A821F09CFCCD
S3150000940446AA02F8E80DB34900200FF0E9FE01244C
S31500009414FEF7D4BF0CF050FB46AA02F8880DAD49FE
S3150000942400200FF0DDFE0124FEF7C8BF0BF0F8FCA8
S315000094340124FEF7C3BF12AAA64901200FF0D0FEED
S3150000944400239DF848101A4601200CF05BFA46AA40
S3150000945402F8880D9F4900200FF0C2FE0124FEF792
S31500009464ADBF082246AB03F8EC2D0CAA009298492E
S3150000947424AA01200FF0B4FE9DF8301024A80CF0A5
S315000094843BFA46AA02F8D00D924900200FF0A8FE36
S315000094940124FEF793BF24A809F010F946AA02F89E
S315000094A4D00D8C4900200FF09BFEBDF890000FF004
S315000094B42FFC0DF1920108200FF052FC0124FEF757
S315000094C47DBF0CAA834901200FF08AFE24A99DF8CA
S315000094D430000AF07BF846AA02F8D00D7D49002038
S315000094E40FF07EFEBDF890000FF012FC9DF892007E
S315000094F40FF0FEFB0DF1930110200FF031FC2998BB
S315000095040FF01AFC2A980FF017FC9DF8AC000FF028
S31500009514EFFB0DF1AD0108200FF022FC0124FEF74C
S315000095244DBF0CAA6B4901200FF05AFE24A99DF8E1
S3150000953430000CF0D7F946AA02F8D00D6549002090
S315000095440FF04EFEBDF890000FF0E2FB9DF892007E
